{
  "_format": "hh-sol-artifact-1",
  "contractName": "ManualToken",
  "sourceName": "contracts/ManualToken.sol",
  "abi": [
    {
      "inputs": [
        {
          "internalType": "uint256",
          "name": "initialSupply",
          "type": "uint256"
        },
        {
          "internalType": "string",
          "name": "tokenName",
          "type": "string"
        },
        {
          "internalType": "string",
          "name": "tokenSymbol",
          "type": "string"
        }
      ],
      "stateMutability": "nonpayable",
      "type": "constructor"
    },
    {
      "anonymous": false,
      "inputs": [
        {
          "indexed": true,
          "internalType": "address",
          "name": "_owner",
          "type": "address"
        },
        {
          "indexed": true,
          "internalType": "address",
          "name": "_spender",
          "type": "address"
        },
        {
          "indexed": false,
          "internalType": "uint256",
          "name": "_value",
          "type": "uint256"
        }
      ],
      "name": "Approval",
      "type": "event"
    },
    {
      "anonymous": false,
      "inputs": [
        {
          "indexed": true,
          "internalType": "address",
          "name": "from",
          "type": "address"
        },
        {
          "indexed": false,
          "internalType": "uint256",
          "name": "value",
          "type": "uint256"
        }
      ],
      "name": "Burn",
      "type": "event"
    },
    {
      "anonymous": false,
      "inputs": [
        {
          "indexed": true,
          "internalType": "address",
          "name": "from",
          "type": "address"
        },
        {
          "indexed": true,
          "internalType": "address",
          "name": "to",
          "type": "address"
        },
        {
          "indexed": false,
          "internalType": "uint256",
          "name": "value",
          "type": "uint256"
        }
      ],
      "name": "Transfer",
      "type": "event"
    },
    {
      "inputs": [
        {
          "internalType": "address",
          "name": "_spender",
          "type": "address"
        },
        {
          "internalType": "uint256",
          "name": "_value",
          "type": "uint256"
        }
      ],
      "name": "approve",
      "outputs": [
        {
          "internalType": "bool",
          "name": "success",
          "type": "bool"
        }
      ],
      "stateMutability": "nonpayable",
      "type": "function"
    },
    {
      "inputs": [
        {
          "internalType": "address",
          "name": "_spender",
          "type": "address"
        },
        {
          "internalType": "uint256",
          "name": "_value",
          "type": "uint256"
        },
        {
          "internalType": "bytes",
          "name": "_extraData",
          "type": "bytes"
        }
      ],
      "name": "approveAndCall",
      "outputs": [
        {
          "internalType": "bool",
          "name": "success",
          "type": "bool"
        }
      ],
      "stateMutability": "nonpayable",
      "type": "function"
    },
    {
      "inputs": [
        {
          "internalType": "address",
          "name": "",
          "type": "address"
        }
      ],
      "name": "balanceOf",
      "outputs": [
        {
          "internalType": "uint256",
          "name": "",
          "type": "uint256"
        }
      ],
      "stateMutability": "view",
      "type": "function"
    },
    {
      "inputs": [
        {
          "internalType": "uint256",
          "name": "_value",
          "type": "uint256"
        }
      ],
      "name": "burn",
      "outputs": [
        {
          "internalType": "bool",
          "name": "success",
          "type": "bool"
        }
      ],
      "stateMutability": "nonpayable",
      "type": "function"
    },
    {
      "inputs": [
        {
          "internalType": "address",
          "name": "_from",
          "type": "address"
        },
        {
          "internalType": "uint256",
          "name": "_value",
          "type": "uint256"
        }
      ],
      "name": "burnFrom",
      "outputs": [
        {
          "internalType": "bool",
          "name": "success",
          "type": "bool"
        }
      ],
      "stateMutability": "nonpayable",
      "type": "function"
    },
    {
      "inputs": [],
      "name": "decimal",
      "outputs": [
        {
          "internalType": "uint8",
          "name": "",
          "type": "uint8"
        }
      ],
      "stateMutability": "view",
      "type": "function"
    },
    {
      "inputs": [],
      "name": "name",
      "outputs": [
        {
          "internalType": "string",
          "name": "",
          "type": "string"
        }
      ],
      "stateMutability": "view",
      "type": "function"
    },
    {
      "inputs": [],
      "name": "symbol",
      "outputs": [
        {
          "internalType": "string",
          "name": "",
          "type": "string"
        }
      ],
      "stateMutability": "view",
      "type": "function"
    },
    {
      "inputs": [],
      "name": "totalSupply",
      "outputs": [
        {
          "internalType": "uint256",
          "name": "",
          "type": "uint256"
        }
      ],
      "stateMutability": "view",
      "type": "function"
    },
    {
      "inputs": [
        {
          "internalType": "address",
          "name": "_to",
          "type": "address"
        },
        {
          "internalType": "uint256",
          "name": "_value",
          "type": "uint256"
        }
      ],
      "name": "transfer",
      "outputs": [
        {
          "internalType": "bool",
          "name": "success",
          "type": "bool"
        }
      ],
      "stateMutability": "nonpayable",
      "type": "function"
    },
    {
      "inputs": [
        {
          "internalType": "address",
          "name": "_from",
          "type": "address"
        },
        {
          "internalType": "address",
          "name": "_to",
          "type": "address"
        },
        {
          "internalType": "uint256",
          "name": "_value",
          "type": "uint256"
        }
      ],
      "name": "transferFrom",
      "outputs": [
        {
          "internalType": "bool",
          "name": "success",
          "type": "bool"
        }
      ],
      "stateMutability": "nonpayable",
      "type": "function"
    }
  ],
  "bytecode": "0x60806040526012600260006101000a81548160ff021916908360ff1602179055503480156200002d57600080fd5b5060405162001abc38038062001abc83398181016040528101906200005391906200024d565b600260009054906101000a900460ff1660ff16600a620000749190620003a1565b83620000819190620004de565b600381905550600354600460003373ffffffffffffffffffffffffffffffffffffffff1673ffffffffffffffffffffffffffffffffffffffff168152602001908152602001600020819055508160009080519060200190620000e592919062000108565b508060019080519060200190620000fe92919062000108565b50505050620006c4565b82805462000116906200057f565b90600052602060002090601f0160209004810192826200013a576000855562000186565b82601f106200015557805160ff191683800117855562000186565b8280016001018555821562000186579182015b828111156200018557825182559160200191906001019062000168565b5b50905062000195919062000199565b5090565b5b80821115620001b45760008160009055506001016200019a565b5090565b6000620001cf620001c98462000310565b620002e7565b905082815260208101848484011115620001ee57620001ed6200067d565b5b620001fb84828562000549565b509392505050565b600082601f8301126200021b576200021a62000678565b5b81516200022d848260208601620001b8565b91505092915050565b6000815190506200024781620006aa565b92915050565b60008060006060848603121562000269576200026862000687565b5b6000620002798682870162000236565b935050602084015167ffffffffffffffff8111156200029d576200029c62000682565b5b620002ab8682870162000203565b925050604084015167ffffffffffffffff811115620002cf57620002ce62000682565b5b620002dd8682870162000203565b9150509250925092565b6000620002f362000306565b9050620003018282620005b5565b919050565b6000604051905090565b600067ffffffffffffffff8211156200032e576200032d62000649565b5b62000339826200068c565b9050602081019050919050565b6000808291508390505b6001851115620003985780860481111562000370576200036f620005eb565b5b6001851615620003805780820291505b808102905062000390856200069d565b945062000350565b94509492505050565b6000620003ae826200053f565b9150620003bb836200053f565b9250620003ea7fffffffffffffffffffffffffffffffffffffffffffffffffffffffffffffffff8484620003f2565b905092915050565b600082620004045760019050620004d7565b81620004145760009050620004d7565b81600181146200042d576002811462000438576200046e565b6001915050620004d7565b60ff8411156200044d576200044c620005eb565b5b8360020a915084821115620004675762000466620005eb565b5b50620004d7565b5060208310610133831016604e8410600b8410161715620004a85782820a905083811115620004a257620004a1620005eb565b5b620004d7565b620004b7848484600162000346565b92509050818404811115620004d157620004d0620005eb565b5b81810290505b9392505050565b6000620004eb826200053f565b9150620004f8836200053f565b9250817fffffffffffffffffffffffffffffffffffffffffffffffffffffffffffffffff0483118215151615620005345762000533620005eb565b5b828202905092915050565b6000819050919050565b60005b83811015620005695780820151818401526020810190506200054c565b8381111562000579576000848401525b50505050565b600060028204905060018216806200059857607f821691505b60208210811415620005af57620005ae6200061a565b5b50919050565b620005c0826200068c565b810181811067ffffffffffffffff82111715620005e257620005e162000649565b5b80604052505050565b7f4e487b7100000000000000000000000000000000000000000000000000000000600052601160045260246000fd5b7f4e487b7100000000000000000000000000000000000000000000000000000000600052602260045260246000fd5b7f4e487b7100000000000000000000000000000000000000000000000000000000600052604160045260246000fd5b600080fd5b600080fd5b600080fd5b600080fd5b6000601f19601f8301169050919050565b60008160011c9050919050565b620006b5816200053f565b8114620006c157600080fd5b50565b6113e880620006d46000396000f3fe608060405234801561001057600080fd5b50600436106100a95760003560e01c806370a082311161007157806370a082311461017a57806376809ce3146101aa57806379cc6790146101c857806395d89b41146101f8578063a9059cbb14610216578063cae9ca5114610246576100a9565b806306fdde03146100ae578063095ea7b3146100cc57806318160ddd146100fc57806323b872dd1461011a57806342966c681461014a575b600080fd5b6100b6610276565b6040516100c39190611039565b60405180910390f35b6100e660048036038101906100e19190610e48565b610304565b6040516100f3919061101e565b60405180910390f35b6101046103f6565b604051610111919061105b565b60405180910390f35b610134600480360381019061012f9190610df5565b6103fc565b604051610141919061101e565b60405180910390f35b610164600480360381019061015f9190610ef7565b610530565b604051610171919061101e565b60405180910390f35b610194600480360381019061018f9190610dc8565b610644565b6040516101a1919061105b565b60405180910390f35b6101b261065c565b6040516101bf9190611076565b60405180910390f35b6101e260048036038101906101dd9190610e48565b61066f565b6040516101ef919061101e565b60405180910390f35b6102006108a0565b60405161020d9190611039565b60405180910390f35b610230600480360381019061022b9190610e48565b61092e565b60405161023d919061101e565b60405180910390f35b610260600480360381019061025b9190610e88565b610945565b60405161026d919061101e565b60405180910390f35b6000805461028390611240565b80601f01602080910402602001604051908101604052809291908181526020018280546102af90611240565b80156102fc5780601f106102d1576101008083540402835291602001916102fc565b820191906000526020600020905b8154815290600101906020018083116102df57829003601f168201915b505050505081565b600081600560003373ffffffffffffffffffffffffffffffffffffffff1673ffffffffffffffffffffffffffffffffffffffff16815260200190815260200160002060008573ffffffffffffffffffffffffffffffffffffffff1673ffffffffffffffffffffffffffffffffffffffff168152602001908152602001600020819055508273ffffffffffffffffffffffffffffffffffffffff163373ffffffffffffffffffffffffffffffffffffffff167f8c5be1e5ebec7d5bd14f71427d1e84f3dd0314c0f7b2291e5b200ac8c7c3b925846040516103e4919061105b565b60405180910390a36001905092915050565b60035481565b6000600560008573ffffffffffffffffffffffffffffffffffffffff1673ffffffffffffffffffffffffffffffffffffffff16815260200190815260200160002060003373ffffffffffffffffffffffffffffffffffffffff1673ffffffffffffffffffffffffffffffffffffffff1681526020019081526020016000205482111561048757600080fd5b81600560008673ffffffffffffffffffffffffffffffffffffffff1673ffffffffffffffffffffffffffffffffffffffff16815260200190815260200160002060003373ffffffffffffffffffffffffffffffffffffffff1673ffffffffffffffffffffffffffffffffffffffff16815260200190815260200160002060008282546105139190611175565b925050819055506105258484846109d4565b600190509392505050565b6000600460003373ffffffffffffffffffffffffffffffffffffffff1673ffffffffffffffffffffffffffffffffffffffff1681526020019081526020016000205482111561057e57600080fd5b81600460003373ffffffffffffffffffffffffffffffffffffffff1673ffffffffffffffffffffffffffffffffffffffff16815260200190815260200160002060008282546105cd9190611175565b9250508190555081600360008282546105e69190611175565b925050819055503373ffffffffffffffffffffffffffffffffffffffff167fcc16f5dbb4873280815c1ee09dbd06736cffcc184412cf7a71a0fdb75d397ca583604051610633919061105b565b60405180910390a260019050919050565b60046020528060005260406000206000915090505481565b600260009054906101000a900460ff1681565b6000600460008473ffffffffffffffffffffffffffffffffffffffff1673ffffffffffffffffffffffffffffffffffffffff168152602001908152602001600020548211156106bd57600080fd5b600560008473ffffffffffffffffffffffffffffffffffffffff1673ffffffffffffffffffffffffffffffffffffffff16815260200190815260200160002060003373ffffffffffffffffffffffffffffffffffffffff1673ffffffffffffffffffffffffffffffffffffffff1681526020019081526020016000205482111561074657600080fd5b81600460008573ffffffffffffffffffffffffffffffffffffffff1673ffffffffffffffffffffffffffffffffffffffff16815260200190815260200160002060008282546107959190611175565b9250508190555081600560008573ffffffffffffffffffffffffffffffffffffffff1673ffffffffffffffffffffffffffffffffffffffff16815260200190815260200160002060003373ffffffffffffffffffffffffffffffffffffffff1673ffffffffffffffffffffffffffffffffffffffff16815260200190815260200160002060008282546108289190611175565b9250508190555081600360008282546108419190611175565b925050819055508273ffffffffffffffffffffffffffffffffffffffff167fcc16f5dbb4873280815c1ee09dbd06736cffcc184412cf7a71a0fdb75d397ca58360405161088e919061105b565b60405180910390a26001905092915050565b600180546108ad90611240565b80601f01602080910402602001604051908101604052809291908181526020018280546108d990611240565b80156109265780601f106108fb57610100808354040283529160200191610926565b820191906000526020600020905b81548152906001019060200180831161090957829003601f168201915b505050505081565b600061093b3384846109d4565b6001905092915050565b6000808490506109558585610304565b156109cc578073ffffffffffffffffffffffffffffffffffffffff16638f4ffcb1338630876040518563ffffffff1660e01b81526004016109999493929190610fd2565b600060405180830381600087803b1580156109b357600080fd5b505af11580156109c7573d6000803e3d6000fd5b505050505b509392505050565b600073ffffffffffffffffffffffffffffffffffffffff168273ffffffffffffffffffffffffffffffffffffffff161415610a0e57600080fd5b80600460008573ffffffffffffffffffffffffffffffffffffffff1673ffffffffffffffffffffffffffffffffffffffff168152602001908152602001600020541015610a5a57600080fd5b600460008373ffffffffffffffffffffffffffffffffffffffff1673ffffffffffffffffffffffffffffffffffffffff1681526020019081526020016000205481600460008573ffffffffffffffffffffffffffffffffffffffff1673ffffffffffffffffffffffffffffffffffffffff16815260200190815260200160002054610ae5919061111f565b1015610af057600080fd5b6000600460008473ffffffffffffffffffffffffffffffffffffffff1673ffffffffffffffffffffffffffffffffffffffff16815260200190815260200160002054600460008673ffffffffffffffffffffffffffffffffffffffff1673ffffffffffffffffffffffffffffffffffffffff16815260200190815260200160002054610b7c919061111f565b905081600460008673ffffffffffffffffffffffffffffffffffffffff1673ffffffffffffffffffffffffffffffffffffffff1681526020019081526020016000206000828254610bcd9190611175565b9250508190555081600460008573ffffffffffffffffffffffffffffffffffffffff1673ffffffffffffffffffffffffffffffffffffffff1681526020019081526020016000206000828254610c23919061111f565b925050819055508273ffffffffffffffffffffffffffffffffffffffff168473ffffffffffffffffffffffffffffffffffffffff167fddf252ad1be2c89b69c2b068fc378daa952ba7f163c4a11628f55a4df523b3ef84604051610c87919061105b565b60405180910390a380600460008573ffffffffffffffffffffffffffffffffffffffff1673ffffffffffffffffffffffffffffffffffffffff16815260200190815260200160002054600460008773ffffffffffffffffffffffffffffffffffffffff1673ffffffffffffffffffffffffffffffffffffffff16815260200190815260200160002054610d1a919061111f565b14610d2857610d276112a3565b5b50505050565b6000610d41610d3c846110b6565b611091565b905082815260208101848484011115610d5d57610d5c611364565b5b610d688482856111fe565b509392505050565b600081359050610d7f81611384565b92915050565b600082601f830112610d9a57610d9961135f565b5b8135610daa848260208601610d2e565b91505092915050565b600081359050610dc28161139b565b92915050565b600060208284031215610dde57610ddd61136e565b5b6000610dec84828501610d70565b91505092915050565b600080600060608486031215610e0e57610e0d61136e565b5b6000610e1c86828701610d70565b9350506020610e2d86828701610d70565b9250506040610e3e86828701610db3565b9150509250925092565b60008060408385031215610e5f57610e5e61136e565b5b6000610e6d85828601610d70565b9250506020610e7e85828601610db3565b9150509250929050565b600080600060608486031215610ea157610ea061136e565b5b6000610eaf86828701610d70565b9350506020610ec086828701610db3565b925050604084013567ffffffffffffffff811115610ee157610ee0611369565b5b610eed86828701610d85565b9150509250925092565b600060208284031215610f0d57610f0c61136e565b5b6000610f1b84828501610db3565b91505092915050565b610f2d816111a9565b82525050565b610f3c816111bb565b82525050565b6000610f4d826110e7565b610f5781856110fd565b9350610f6781856020860161120d565b610f7081611373565b840191505092915050565b6000610f86826110f2565b610f90818561110e565b9350610fa081856020860161120d565b610fa981611373565b840191505092915050565b610fbd816111e7565b82525050565b610fcc816111f1565b82525050565b6000608082019050610fe76000830187610f24565b610ff46020830186610fb4565b6110016040830185610f24565b81810360608301526110138184610f42565b905095945050505050565b60006020820190506110336000830184610f33565b92915050565b600060208201905081810360008301526110538184610f7b565b905092915050565b60006020820190506110706000830184610fb4565b92915050565b600060208201905061108b6000830184610fc3565b92915050565b600061109b6110ac565b90506110a78282611272565b919050565b6000604051905090565b600067ffffffffffffffff8211156110d1576110d0611330565b5b6110da82611373565b9050602081019050919050565b600081519050919050565b600081519050919050565b600082825260208201905092915050565b600082825260208201905092915050565b600061112a826111e7565b9150611135836111e7565b9250827fffffffffffffffffffffffffffffffffffffffffffffffffffffffffffffffff0382111561116a576111696112d2565b5b828201905092915050565b6000611180826111e7565b915061118b836111e7565b92508282101561119e5761119d6112d2565b5b828203905092915050565b60006111b4826111c7565b9050919050565b60008115159050919050565b600073ffffffffffffffffffffffffffffffffffffffff82169050919050565b6000819050919050565b600060ff82169050919050565b82818337600083830152505050565b60005b8381101561122b578082015181840152602081019050611210565b8381111561123a576000848401525b50505050565b6000600282049050600182168061125857607f821691505b6020821081141561126c5761126b611301565b5b50919050565b61127b82611373565b810181811067ffffffffffffffff8211171561129a57611299611330565b5b80604052505050565b7f4e487b7100000000000000000000000000000000000000000000000000000000600052600160045260246000fd5b7f4e487b7100000000000000000000000000000000000000000000000000000000600052601160045260246000fd5b7f4e487b7100000000000000000000000000000000000000000000000000000000600052602260045260246000fd5b7f4e487b7100000000000000000000000000000000000000000000000000000000600052604160045260246000fd5b600080fd5b600080fd5b600080fd5b600080fd5b6000601f19601f8301169050919050565b61138d816111a9565b811461139857600080fd5b50565b6113a4816111e7565b81146113af57600080fd5b5056fea2646970667358221220f2f33570ca13de464d683bf3b09909c35c1127d23f7afae3e55f995672c2253064736f6c63430008070033",
  "linkReferences": {},
  "deployedLinkReferences": {}
}